{
  "_format": "hh-sol-artifact-1",
  "contractName": "Wallet",
  "sourceName": "contracts/Wallet.sol",
  "abi": [
    {
      "inputs": [],
      "stateMutability": "nonpayable",
      "type": "constructor"
    },
    {
      "anonymous": false,
      "inputs": [
        {
          "indexed": true,
          "internalType": "address",
          "name": "sender",
          "type": "address"
        },
        {
          "indexed": false,
          "internalType": "uint256",
          "name": "amount",
          "type": "uint256"
        }
      ],
      "name": "Deposit",
      "type": "event"
    },
    {
      "anonymous": false,
      "inputs": [
        {
          "indexed": true,
          "internalType": "address",
          "name": "recipient",
          "type": "address"
        },
        {
          "indexed": false,
          "internalType": "uint256",
          "name": "amount",
          "type": "uint256"
        }
      ],
      "name": "Withdraw",
      "type": "event"
    },
    {
      "stateMutability": "payable",
      "type": "fallback"
    },
    {
      "inputs": [],
      "name": "deposit",
      "outputs": [],
      "stateMutability": "payable",
      "type": "function"
    },
    {
      "inputs": [],
      "name": "getBalance",
      "outputs": [
        {
          "internalType": "uint256",
          "name": "",
          "type": "uint256"
        }
      ],
      "stateMutability": "view",
      "type": "function"
    },
    {
      "inputs": [],
      "name": "owner",
      "outputs": [
        {
          "internalType": "address",
          "name": "",
          "type": "address"
        }
      ],
      "stateMutability": "view",
      "type": "function"
    },
    {
      "inputs": [
        {
          "internalType": "uint256",
          "name": "amount",
          "type": "uint256"
        }
      ],
      "name": "withdraw",
      "outputs": [],
      "stateMutability": "nonpayable",
      "type": "function"
    },
    {
      "stateMutability": "payable",
      "type": "receive"
    }
  ],
  "bytecode": "0x6080604052348015600f57600080fd5b50336000806101000a81548173ffffffffffffffffffffffffffffffffffffffff021916908373ffffffffffffffffffffffffffffffffffffffff1602179055506106788061005f6000396000f3fe6080604052600436106100435760003560e01c806312065fe0146100e85780632e1a7d4d146101135780638da5cb5b1461013c578063d0e30db01461016757610098565b36610098573373ffffffffffffffffffffffffffffffffffffffff167fe1fffcc4923d04b559f4d29a8bfc6cda04eb5b0d3c460751c2402c5c5cc9109c3460405161008e91906103f2565b60405180910390a2005b3373ffffffffffffffffffffffffffffffffffffffff167fe1fffcc4923d04b559f4d29a8bfc6cda04eb5b0d3c460751c2402c5c5cc9109c346040516100de91906103f2565b60405180910390a2005b3480156100f457600080fd5b506100fd610171565b60405161010a91906103f2565b60405180910390f35b34801561011f57600080fd5b5061013a6004803603810190610135919061043e565b610179565b005b34801561014857600080fd5b50610151610322565b60405161015e91906104ac565b60405180910390f35b61016f610346565b005b600047905090565b60008054906101000a900473ffffffffffffffffffffffffffffffffffffffff1673ffffffffffffffffffffffffffffffffffffffff163373ffffffffffffffffffffffffffffffffffffffff1614610207576040517f08c379a00000000000000000000000000000000000000000000000000000000081526004016101fe90610524565b60405180910390fd5b8047101561024a576040517f08c379a000000000000000000000000000000000000000000000000000000000815260040161024190610590565b60405180910390fd5b60008054906101000a900473ffffffffffffffffffffffffffffffffffffffff1673ffffffffffffffffffffffffffffffffffffffff166108fc829081150290604051600060405180830381858888f193505050501580156102b0573d6000803e3d6000fd5b5060008054906101000a900473ffffffffffffffffffffffffffffffffffffffff1673ffffffffffffffffffffffffffffffffffffffff167f884edad9ce6fa2440d8a54cc123490eb96d2768479d49ff9c7366125a94243648260405161031791906103f2565b60405180910390a250565b60008054906101000a900473ffffffffffffffffffffffffffffffffffffffff1681565b60003411610389576040517f08c379a000000000000000000000000000000000000000000000000000000000815260040161038090610622565b60405180910390fd5b3373ffffffffffffffffffffffffffffffffffffffff167fe1fffcc4923d04b559f4d29a8bfc6cda04eb5b0d3c460751c2402c5c5cc9109c346040516103cf91906103f2565b60405180910390a2565b6000819050919050565b6103ec816103d9565b82525050565b600060208201905061040760008301846103e3565b92915050565b600080fd5b61041b816103d9565b811461042657600080fd5b50565b60008135905061043881610412565b92915050565b6000602082840312156104545761045361040d565b5b600061046284828501610429565b91505092915050565b600073ffffffffffffffffffffffffffffffffffffffff82169050919050565b60006104968261046b565b9050919050565b6104a68161048b565b82525050565b60006020820190506104c1600083018461049d565b92915050565b600082825260208201905092915050565b7f4e6f742074686520636f6e7472616374206f776e657200000000000000000000600082015250565b600061050e6016836104c7565b9150610519826104d8565b602082019050919050565b6000602082019050818103600083015261053d81610501565b9050919050565b7f496e73756666696369656e742062616c616e6365000000000000000000000000600082015250565b600061057a6014836104c7565b915061058582610544565b602082019050919050565b600060208201905081810360008301526105a98161056d565b9050919050565b7f4465706f73697420616d6f756e74206d7573742062652067726561746572207460008201527f68616e207a65726f000000000000000000000000000000000000000000000000602082015250565b600061060c6028836104c7565b9150610617826105b0565b604082019050919050565b6000602082019050818103600083015261063b816105ff565b905091905056fea264697066735822122022e4e21365d402861580f2eaafde71dc53b406970ed6efe50facc011061562b264736f6c634300081c0033",
  "linkReferences": {},
  "deployedLinkReferences": {}
}